{
  "_format": "hh-sol-artifact-1",
  "contractName": "ProposalVote",
  "sourceName": "contracts/ProposalVote.sol",
  "abi": [
    {
      "anonymous": false,
      "inputs": [
        {
          "indexed": true,
          "internalType": "string",
          "name": "name",
          "type": "string"
        },
        {
          "indexed": false,
          "internalType": "uint16",
          "name": "count",
          "type": "uint16"
        }
      ],
      "name": "ProposalActive",
      "type": "event"
    },
    {
      "anonymous": false,
      "inputs": [
        {
          "indexed": true,
          "internalType": "string",
          "name": "name",
          "type": "string"
        },
        {
          "indexed": false,
          "internalType": "uint16",
          "name": "count",
          "type": "uint16"
        }
      ],
      "name": "ProposalApproved",
      "type": "event"
    },
    {
      "anonymous": false,
      "inputs": [
        {
          "indexed": true,
          "internalType": "string",
          "name": "name",
          "type": "string"
        },
        {
          "indexed": false,
          "internalType": "uint16",
          "name": "quorum",
          "type": "uint16"
        }
      ],
      "name": "ProposalCreated",
      "type": "event"
    },
    {
      "inputs": [
        {
          "internalType": "string",
          "name": "_name",
          "type": "string"
        },
        {
          "internalType": "string",
          "name": "_desc",
          "type": "string"
        },
        {
          "internalType": "uint16",
          "name": "_quorum",
          "type": "uint16"
        }
      ],
      "name": "createProposal",
      "outputs": [],
      "stateMutability": "nonpayable",
      "type": "function"
    },
    {
      "inputs": [],
      "name": "getAllProposals",
      "outputs": [
        {
          "components": [
            {
              "internalType": "string",
              "name": "name",
              "type": "string"
            },
            {
              "internalType": "string",
              "name": "description",
              "type": "string"
            },
            {
              "internalType": "uint16",
              "name": "voteCount",
              "type": "uint16"
            },
            {
              "internalType": "address[]",
              "name": "voters",
              "type": "address[]"
            },
            {
              "internalType": "uint16",
              "name": "quorum",
              "type": "uint16"
            },
            {
              "internalType": "enum ProposalVote.PropsStatus",
              "name": "status",
              "type": "uint8"
            }
          ],
          "internalType": "struct ProposalVote.Proposal[]",
          "name": "",
          "type": "tuple[]"
        }
      ],
      "stateMutability": "view",
      "type": "function"
    },
    {
      "inputs": [
        {
          "internalType": "uint8",
          "name": "_index",
          "type": "uint8"
        }
      ],
      "name": "getProposal",
      "outputs": [
        {
          "internalType": "string",
          "name": "name_",
          "type": "string"
        },
        {
          "internalType": "string",
          "name": "desc_",
          "type": "string"
        },
        {
          "internalType": "uint16",
          "name": "count_",
          "type": "uint16"
        },
        {
          "internalType": "address[]",
          "name": "voters_",
          "type": "address[]"
        },
        {
          "internalType": "uint16",
          "name": "quorum_",
          "type": "uint16"
        },
        {
          "internalType": "enum ProposalVote.PropsStatus",
          "name": "status_",
          "type": "uint8"
        }
      ],
      "stateMutability": "view",
      "type": "function"
    },
    {
      "inputs": [
        {
          "internalType": "uint256",
          "name": "",
          "type": "uint256"
        }
      ],
      "name": "proposals",
      "outputs": [
        {
          "internalType": "string",
          "name": "name",
          "type": "string"
        },
        {
          "internalType": "string",
          "name": "description",
          "type": "string"
        },
        {
          "internalType": "uint16",
          "name": "voteCount",
          "type": "uint16"
        },
        {
          "internalType": "uint16",
          "name": "quorum",
          "type": "uint16"
        },
        {
          "internalType": "enum ProposalVote.PropsStatus",
          "name": "status",
          "type": "uint8"
        }
      ],
      "stateMutability": "view",
      "type": "function"
    },
    {
      "inputs": [
        {
          "internalType": "uint8",
          "name": "_index",
          "type": "uint8"
        }
      ],
      "name": "voteOnProposal",
      "outputs": [],
      "stateMutability": "nonpayable",
      "type": "function"
    }
  ],
  "bytecode": "0x6080604052348015600f57600080fd5b50611e748061001f6000396000f3fe608060405234801561001057600080fd5b50600436106100575760003560e01c8063013cf08b1461005c5780635521e3bf14610090578063bcf2e026146100ac578063cceb68f5146100c8578063dac001fe146100e6575b600080fd5b61007660048036038101906100719190611032565b61011b565b604051610087959493929190611183565b60405180910390f35b6100aa60048036038101906100a5919061121d565b61029a565b005b6100c660048036038101906100c191906113ab565b6106ff565b005b6100d061090d565b6040516100dd91906116e7565b60405180910390f35b61010060048036038101906100fb919061121d565b610b99565b60405161011296959493929190611778565b60405180910390f35b6001818154811061012b57600080fd5b906000526020600020906005020160009150905080600001805461014e9061181d565b80601f016020809104026020016040519081016040528092919081815260200182805461017a9061181d565b80156101c75780601f1061019c576101008083540402835291602001916101c7565b820191906000526020600020905b8154815290600101906020018083116101aa57829003601f168201915b5050505050908060010180546101dc9061181d565b80601f01602080910402602001604051908101604052809291908181526020018280546102089061181d565b80156102555780601f1061022a57610100808354040283529160200191610255565b820191906000526020600020905b81548152906001019060200180831161023857829003601f168201915b5050505050908060020160009054906101000a900461ffff16908060040160009054906101000a900461ffff16908060040160029054906101000a900460ff16905085565b600073ffffffffffffffffffffffffffffffffffffffff163373ffffffffffffffffffffffffffffffffffffffff1603610309576040517f08c379a00000000000000000000000000000000000000000000000000000000081526004016103009061189a565b60405180910390fd5b6001805490508160ff1610610353576040517f08c379a000000000000000000000000000000000000000000000000000000000815260040161034a90611906565b60405180910390fd5b6000803373ffffffffffffffffffffffffffffffffffffffff1673ffffffffffffffffffffffffffffffffffffffff16815260200190815260200160002060008260ff1660ff16815260200190815260200160002060009054906101000a900460ff16156103f6576040517f08c379a00000000000000000000000000000000000000000000000000000000081526004016103ed90611972565b60405180910390fd5b600060018260ff168154811061040f5761040e611992565b5b906000526020600020906005020190506003808111156104325761043161110c565b5b8160040160029054906101000a900460ff1660038111156104565761045561110c565b5b03610496576040517f08c379a000000000000000000000000000000000000000000000000000000000815260040161048d90611a33565b60405180910390fd5b60018160020160008282829054906101000a900461ffff166104b89190611a82565b92506101000a81548161ffff021916908361ffff16021790555080600301339080600181540180825580915050600190039060005260206000200160009091909190916101000a81548173ffffffffffffffffffffffffffffffffffffffff021916908373ffffffffffffffffffffffffffffffffffffffff16021790555060028160040160026101000a81548160ff0219169083600381111561055f5761055e61110c565b5b021790555060016000803373ffffffffffffffffffffffffffffffffffffffff1673ffffffffffffffffffffffffffffffffffffffff16815260200190815260200160002060008460ff1660ff16815260200190815260200160002060006101000a81548160ff0219169083151502179055508060040160009054906101000a900461ffff1661ffff168160020160009054906101000a900461ffff1661ffff16106106995760038160040160026101000a81548160ff0219169083600381111561062d5761062c61110c565b5b0217905550806000016040516106439190611b5b565b60405180910390207ff905f773c0a2b3d406f07062a5f684e9a9e9ee94a78543e4d7e3032a343fe1288260020160009054906101000a900461ffff1660405161068c9190611b72565b60405180910390a26106fb565b806000016040516106aa9190611b5b565b60405180910390207e68f5acd04b88bca43c904950734810e6d43b1f13f00da9e450355cad2735438260020160009054906101000a900461ffff166040516106f29190611b72565b60405180910390a25b5050565b600073ffffffffffffffffffffffffffffffffffffffff163373ffffffffffffffffffffffffffffffffffffffff160361076e576040517f08c379a00000000000000000000000000000000000000000000000000000000081526004016107659061189a565b60405180910390fd5b610776610ef1565b83816000018190525082816020018190525081816080019061ffff16908161ffff168152505060018160a0019060038111156107b5576107b461110c565b5b908160038111156107c9576107c861110c565b5b815250506001819080600181540180825580915050600190039060005260206000209060050201600090919091909150600082015181600001908161080e9190611d24565b5060208201518160010190816108249190611d24565b5060408201518160020160006101000a81548161ffff021916908361ffff1602179055506060820151816003019080519060200190610864929190610f41565b5060808201518160040160006101000a81548161ffff021916908361ffff16021790555060a08201518160040160026101000a81548160ff021916908360038111156108b3576108b261110c565b5b02179055505050836040516108c89190611e27565b60405180910390207fd676bd5a867d12796d6ef62a604d07c83bdce30aaf9471431d7772e1ba09e222836040516108ff9190611b72565b60405180910390a250505050565b60606001805480602002602001604051908101604052809291908181526020016000905b82821015610b9057838290600052602060002090600502016040518060c00160405290816000820180546109649061181d565b80601f01602080910402602001604051908101604052809291908181526020018280546109909061181d565b80156109dd5780601f106109b2576101008083540402835291602001916109dd565b820191906000526020600020905b8154815290600101906020018083116109c057829003601f168201915b505050505081526020016001820180546109f69061181d565b80601f0160208091040260200160405190810160405280929190818152602001828054610a229061181d565b8015610a6f5780601f10610a4457610100808354040283529160200191610a6f565b820191906000526020600020905b815481529060010190602001808311610a5257829003601f168201915b505050505081526020016002820160009054906101000a900461ffff1661ffff1661ffff16815260200160038201805480602002602001604051908101604052809291908181526020018280548015610b1d57602002820191906000526020600020905b8160009054906101000a900473ffffffffffffffffffffffffffffffffffffffff1673ffffffffffffffffffffffffffffffffffffffff1681526020019060010190808311610ad3575b505050505081526020016004820160009054906101000a900461ffff1661ffff1661ffff1681526020016004820160029054906101000a900460ff166003811115610b6b57610b6a61110c565b5b6003811115610b7d57610b7c61110c565b5b8152505081526020019060010190610931565b50505050905090565b60608060006060600080600073ffffffffffffffffffffffffffffffffffffffff163373ffffffffffffffffffffffffffffffffffffffff1603610c12576040517f08c379a0000000000000000000000000000000000000000000000000000000008152600401610c099061189a565b60405180910390fd5b6001805490508760ff1610610c5c576040517f08c379a0000000000000000000000000000000000000000000000000000000008152600401610c5390611906565b60405180910390fd5b600060018860ff1681548110610c7557610c74611992565b5b90600052602060002090600502016040518060c0016040529081600082018054610c9e9061181d565b80601f0160208091040260200160405190810160405280929190818152602001828054610cca9061181d565b8015610d175780601f10610cec57610100808354040283529160200191610d17565b820191906000526020600020905b815481529060010190602001808311610cfa57829003601f168201915b50505050508152602001600182018054610d309061181d565b80601f0160208091040260200160405190810160405280929190818152602001828054610d5c9061181d565b8015610da95780601f10610d7e57610100808354040283529160200191610da9565b820191906000526020600020905b815481529060010190602001808311610d8c57829003601f168201915b505050505081526020016002820160009054906101000a900461ffff1661ffff1661ffff16815260200160038201805480602002602001604051908101604052809291908181526020018280548015610e5757602002820191906000526020600020905b8160009054906101000a900473ffffffffffffffffffffffffffffffffffffffff1673ffffffffffffffffffffffffffffffffffffffff1681526020019060010190808311610e0d575b505050505081526020016004820160009054906101000a900461ffff1661ffff1661ffff1681526020016004820160029054906101000a900460ff166003811115610ea557610ea461110c565b5b6003811115610eb757610eb661110c565b5b81525050905080600001519650806020015195508060400151945080606001519350806080015192508060a0015191505091939550919395565b6040518060c001604052806060815260200160608152602001600061ffff16815260200160608152602001600061ffff16815260200160006003811115610f3b57610f3a61110c565b5b81525090565b828054828255906000526020600020908101928215610fba579160200282015b82811115610fb95782518260006101000a81548173ffffffffffffffffffffffffffffffffffffffff021916908373ffffffffffffffffffffffffffffffffffffffff16021790555091602001919060010190610f61565b5b509050610fc79190610fcb565b5090565b5b80821115610fe4576000816000905550600101610fcc565b5090565b6000604051905090565b600080fd5b600080fd5b6000819050919050565b61100f81610ffc565b811461101a57600080fd5b50565b60008135905061102c81611006565b92915050565b60006020828403121561104857611047610ff2565b5b60006110568482850161101d565b91505092915050565b600081519050919050565b600082825260208201905092915050565b60005b8381101561109957808201518184015260208101905061107e565b60008484015250505050565b6000601f19601f8301169050919050565b60006110c18261105f565b6110cb818561106a565b93506110db81856020860161107b565b6110e4816110a5565b840191505092915050565b600061ffff82169050919050565b611106816110ef565b82525050565b7f4e487b7100000000000000000000000000000000000000000000000000000000600052602160045260246000fd5b6004811061114c5761114b61110c565b5b50565b600081905061115d8261113b565b919050565b600061116d8261114f565b9050919050565b61117d81611162565b82525050565b600060a082019050818103600083015261119d81886110b6565b905081810360208301526111b181876110b6565b90506111c060408301866110fd565b6111cd60608301856110fd565b6111da6080830184611174565b9695505050505050565b600060ff82169050919050565b6111fa816111e4565b811461120557600080fd5b50565b600081359050611217816111f1565b92915050565b60006020828403121561123357611232610ff2565b5b600061124184828501611208565b91505092915050565b600080fd5b600080fd5b7f4e487b7100000000000000000000000000000000000000000000000000000000600052604160045260246000fd5b61128c826110a5565b810181811067ffffffffffffffff821117156112ab576112aa611254565b5b80604052505050565b60006112be610fe8565b90506112ca8282611283565b919050565b600067ffffffffffffffff8211156112ea576112e9611254565b5b6112f3826110a5565b9050602081019050919050565b82818337600083830152505050565b600061132261131d846112cf565b6112b4565b90508281526020810184848401111561133e5761133d61124f565b5b611349848285611300565b509392505050565b600082601f8301126113665761136561124a565b5b813561137684826020860161130f565b91505092915050565b611388816110ef565b811461139357600080fd5b50565b6000813590506113a58161137f565b92915050565b6000806000606084860312156113c4576113c3610ff2565b5b600084013567ffffffffffffffff8111156113e2576113e1610ff7565b5b6113ee86828701611351565b935050602084013567ffffffffffffffff81111561140f5761140e610ff7565b5b61141b86828701611351565b925050604061142c86828701611396565b9150509250925092565b600081519050919050565b600082825260208201905092915050565b6000819050602082019050919050565b600082825260208201905092915050565b600061147e8261105f565b6114888185611462565b935061149881856020860161107b565b6114a1816110a5565b840191505092915050565b6114b5816110ef565b82525050565b600081519050919050565b600082825260208201905092915050565b6000819050602082019050919050565b600073ffffffffffffffffffffffffffffffffffffffff82169050919050565b6000611512826114e7565b9050919050565b61152281611507565b82525050565b60006115348383611519565b60208301905092915050565b6000602082019050919050565b6000611558826114bb565b61156281856114c6565b935061156d836114d7565b8060005b8381101561159e5781516115858882611528565b975061159083611540565b925050600181019050611571565b5085935050505092915050565b6115b481611162565b82525050565b600060c08301600083015184820360008601526115d78282611473565b915050602083015184820360208601526115f18282611473565b915050604083015161160660408601826114ac565b506060830151848203606086015261161e828261154d565b915050608083015161163360808601826114ac565b5060a083015161164660a08601826115ab565b508091505092915050565b600061165d83836115ba565b905092915050565b6000602082019050919050565b600061167d82611436565b6116878185611441565b93508360208202850161169985611452565b8060005b858110156116d557848403895281516116b68582611651565b94506116c183611665565b925060208a0199505060018101905061169d565b50829750879550505050505092915050565b600060208201905081810360008301526117018184611672565b905092915050565b600082825260208201905092915050565b6000611725826114bb565b61172f8185611709565b935061173a836114d7565b8060005b8381101561176b5781516117528882611528565b975061175d83611540565b92505060018101905061173e565b5085935050505092915050565b600060c082019050818103600083015261179281896110b6565b905081810360208301526117a681886110b6565b90506117b560408301876110fd565b81810360608301526117c7818661171a565b90506117d660808301856110fd565b6117e360a0830184611174565b979650505050505050565b7f4e487b7100000000000000000000000000000000000000000000000000000000600052602260045260246000fd5b6000600282049050600182168061183557607f821691505b602082108103611848576118476117ee565b5b50919050565b7f5a65726f2061646472657373206973206e6f7420616c6c6f7765640000000000600082015250565b6000611884601b8361106a565b915061188f8261184e565b602082019050919050565b600060208201905081810360008301526118b381611877565b9050919050565b7f496e646578206973206f7574206f6620626f756e640000000000000000000000600082015250565b60006118f060158361106a565b91506118fb826118ba565b602082019050919050565b6000602082019050818103600083015261191f816118e3565b9050919050565b7f596f75206861766520766f74656420616c726561647900000000000000000000600082015250565b600061195c60168361106a565b915061196782611926565b602082019050919050565b6000602082019050818103600083015261198b8161194f565b9050919050565b7f4e487b7100000000000000000000000000000000000000000000000000000000600052603260045260246000fd5b7f546869732070726f706f73616c20686173206265656e2061636365707465642060008201527f616c726561647900000000000000000000000000000000000000000000000000602082015250565b6000611a1d60278361106a565b9150611a28826119c1565b604082019050919050565b60006020820190508181036000830152611a4c81611a10565b9050919050565b7f4e487b7100000000000000000000000000000000000000000000000000000000600052601160045260246000fd5b6000611a8d826110ef565b9150611a98836110ef565b9250828201905061ffff811115611ab257611ab1611a53565b5b92915050565b600081905092915050565b60008190508160005260206000209050919050565b60008154611ae58161181d565b611aef8186611ab8565b94506001821660008114611b0a5760018114611b1f57611b52565b60ff1983168652811515820286019350611b52565b611b2885611ac3565b60005b83811015611b4a57815481890152600182019150602081019050611b2b565b838801955050505b50505092915050565b6000611b678284611ad8565b915081905092915050565b6000602082019050611b8760008301846110fd565b92915050565b60006020601f8301049050919050565b600082821b905092915050565b600060088302611bda7fffffffffffffffffffffffffffffffffffffffffffffffffffffffffffffffff82611b9d565b611be48683611b9d565b95508019841693508086168417925050509392505050565b6000819050919050565b6000611c21611c1c611c1784610ffc565b611bfc565b610ffc565b9050919050565b6000819050919050565b611c3b83611c06565b611c4f611c4782611c28565b848454611baa565b825550505050565b600090565b611c64611c57565b611c6f818484611c32565b505050565b5b81811015611c9357611c88600082611c5c565b600181019050611c75565b5050565b601f821115611cd857611ca981611ac3565b611cb284611b8d565b81016020851015611cc1578190505b611cd5611ccd85611b8d565b830182611c74565b50505b505050565b600082821c905092915050565b6000611cfb60001984600802611cdd565b1980831691505092915050565b6000611d148383611cea565b9150826002028217905092915050565b611d2d8261105f565b67ffffffffffffffff811115611d4657611d45611254565b5b611d50825461181d565b611d5b828285611c97565b600060209050601f831160018114611d8e5760008415611d7c578287015190505b611d868582611d08565b865550611dee565b601f198416611d9c86611ac3565b60005b82811015611dc457848901518255600182019150602085019450602081019050611d9f565b86831015611de15784890151611ddd601f891682611cea565b8355505b6001600288020188555050505b505050505050565b6000611e018261105f565b611e0b8185611ab8565b9350611e1b81856020860161107b565b80840191505092915050565b6000611e338284611df6565b91508190509291505056fea264697066735822122076651713ad35a94db114ae39c63c916d7cb76d26cb51d046a34c0ae54fa5f05364736f6c634300081b0033",
  "linkReferences": {},
  "deployedLinkReferences": {}
}